:060000000A128A11C92F4B
:10000800F4000130FF007F08831203139F05740872
:10001800F20002300310F20DFF3E031D0E280310FC
:10002800720DFF007F089F040B30F3006230F2006E
:10003800F20B1C28F30B1C280000831203131F1556
:100048001F192728282824281E08F10083160313BF
:100058001E08F0000800F80078080319342835282D
:100068004928F31F3828392849287009FA007109E6
:10007800FB007209FC007309FD00FA0A0319FB0A68
:100088000319FC0A0319FD0A51287308FD007208B8
:10009800FC007108FB007008FA0073087204710410
:1000A8007004031D5828592862280030F3000030D6
:1000B800F2000030F1000030F000E6289630F90038
:1000C80072280130FF007F08F90701300310FD0C8A
:1000D800FC0CFB0CFA0CFF3E031D6A28FE307D0564
:1000E800031D77287828652894280130FF007F08A9
:1000F800F9070130FA07003003180130FB07003018
:1001080003180130FC07003003180130FD070130E7
:100118000310FD0CFC0CFB0CFA0CFF3E031D8C2895
:10012800FF307D05031D99289A287928A6280130D3
:10013800F9020130F4000310FA0DFB0DFC0DFD0D62
:10014800F40B9F28FC1BA928AA28B02802307902A2
:100158000318AF28B0289B287918B328B428BC28DE
:10016800FF30FA05FF30FB057F30FC05FF30FD0549
:100178000310F90C7908F400F501F601F7011830BD
:100188000310F40DF50DF60DF70DFF3E031DC42801
:100198007408FA047508FB047608FC047708FD0463
:1001A80078080319D828D928DE28F31FDC28DD2889
:1001B800DE28FD177D08F3007C08F2007B08F100BB
:1001C8007A08F000080083120313B0002230A90057
:1001D8009A2A253031060319F228F328FD28300819
:1001E80084003108831380000130FF007F08B007C6
:1001F8009A2AAE01AF01AD0108292D150130A007DB
:100208000318A10A0030A1072108FF002008840074
:100218000A168A1500200A128A11303A0319012990
:1002280015292108FF00200884000A168A150020D5
:100238000A128A110A168A15C7220A128A11031C81
:10024800262927296D2983120313AE01AF010A302D
:10025800F0000030F100831203132F08F3002E087A
:10026800F2000A168A15E5230A128A117108831208
:100278000313AF007008AE002108FF0020088400B7
:100288000A168A1500200A128A11D03EA600FF30ED
:1002980003180030A7002608AE070318AF0A27087E
:1002A800AF070130A0070318A10A0030A1072108F1
:1002B800FF00200884000A168A1500200A128A11F5
:1002C8000A168A15C7220A128A1103186C296D2981
:1002D8002B29831203132108A7002008A600A00ACF
:1002E8000319A10A2708FF00260884000A168A15A0
:1002F80000200A128A11B100003A0319B02A643AA0
:1003080003198A290D3A03198A299A2A2908840087
:1003180083130008AB00840A0008AC000230FF0019
:100328007F08A907AC1F99299A29A3290330FF0040
:100338007F08AD04AB09AC09AB0A0319AC0AB101DB
:10034800B10A3108A6002607123E84009830031827
:10035800013EFF000A168A1500200A128A11A7001A
:100368000A168A1500200A128A11A80028082C02E9
:10037800031DC02927082B020318C329C429C5292E
:10038800CF290130FF007F08B10705303106031D72
:10039800CE29CF29A5292E082F040319D429D52918
:1003A800E1292D0803390319DA29DB29E129FF306E
:1003B800AE070318AF0AFF30AF072F08803A803C1A
:1003C800031DE8292E0831020318EB29EC29F82926
:1003D800831203133108A600A7012608AE022708D6
:1003E800031CAF03AF02FC2983120313AE01AF0154
:1003F8002D1DFF29002A2B2A2D0803390319052A48
:10040800062A0F2A300884002D308313800001301B
:10041800FF007F08B0072E082F040319142A152A95
:10042800552A300884003030831380000130FF00E3
:100438007F08B007FF30AE070318AF0AFF30AF07D9
:100448002E082F04031D292A2A2A152A552A2E0880
:100458002F040319302A312A462A30088400203014
:10046800831380000130FF007F08B007FF30AE071C
:100478000318AF0AFF30AF072E082F04031D452AC3
:10048800462A312A2D08033903194B2A4C2A552AA2
:10049800300884002D30831380000130FF007F086E
:1004A800B0073108AA00912A0A30F7000030F80096
:1004B8002A08A6002607123E840098300318013E39
:1004C800FF000A168A1500200A128A11F0000A167F
:1004D8008A1500200A128A11F1002C08F3002B0853
:1004E800F2000A168A156B250A128A117108FA0099
:1004F8007008F9000A168A15F0240A128A1177087A
:10050800303E83120313B10030088400310883138E
:1005180080000130FF007F08B007FF30FF007F0830
:10052800AA072A0A031D992A9A2A582A2108A700E5
:100538002008A600A00A0319A10A2708FF00260818
:1005480084000A168A1500200A128A11B10031089F
:10055800031DAF2AB02AED283008840083138001D8
:1005680008008312031327088039B1002708A80060
:100578002807B800A61FC12AC22AC32A3814380877
:100588000319C72AC82AD82A380A031DCC2ACD2A13
:10059800D52A0030A7000030A6000030A5000030A2
:1005A800A400A617A701E02A0030A7000030A60083
:1005B8000030A5000030A40023088039FF007F0820
:1005C800B1062308A8002807B900A21FEC2AED2AC3
:1005D800EE2A391439080319F22AF32A032B390AA7
:1005E800031DF72AF82A002B0030A3000030A200D0
:1005F8000030A1000030A000A217A3010B2B00308F
:10060800A3000030A2000030A1000030A0002308A1
:10061800220421042004031D122B132B2C2B003041
:10062800A7000030A6000030A5000030A4008030EC
:10063800A6047F30A7043108FF007F08A704270815
:10064800A3002608A2002508A1002408A000832CE6
:100658003808031D302B312B3A2B0030A300003013
:10066800A2000030A1000030A000832C3808A800A8
:10067800A9012908AB0039082802AA00031CAB030A
:100688002A087F3EB2002B080318013E003EB30043
:100698002708B0002608AF002508AE002408AD00E2
:1006A8000030A7000030A6000030A5000030A400EC
:1006B8000030B7000030B6000030B5000030B4009C
:1006C800B901B02B390803196A2B6B2B8B2B01301E
:1006D800A8000310AD0DAE0DAF0DB00DA80B6D2B1E
:1006E8000130A8000310A40DA50DA60DA70DA80B99
:1006F800762BB71F802B812B822B24140130A80066
:100708000310B40DB50DB60DB70DA80B842B230837
:100718003002031D992B22082F02031D992B210853
:100728002E02031D992B20082D02031C9C2B9D2BA8
:10073800AC2B37172008AD022108031C210FAE028D
:100748002208031C220FAF022308031C230FB00248
:100758000130FF007F08B9071A303902031CB52B96
:10076800B62B662B30082F042E042D040319BD2B3D
:10077800BE2BDD2B3414DD2B0130A8000310A40D93
:10078800A50DA60DA70DA80BC22BB71FCC2BCD2BE3
:10079800CE2B24140130A8000310B40DB50DB60DEE
:1007A800B70DA80BD02BFF30B2070318B30AFF30E0
:1007B800B307A61FE02BE12BC02BB901B71FE52B10
:1007C800E62B022CFF303405A800FF303505A900C0
:1007D800FF303605AA007F303705AB002B082A0406
:1007E800290428040319F92BFA2BFD2BB901B90A9E
:1007F800022C241C002C012C022CFA2B390803197A
:10080800062C072C382C0130A407003003180130BF
:10081800A507003003180130A6070030031801307F
:10082800A707271C182C192C382C2408A8002508E1
:10083800A9002608AA002708AB000130AC002B0D40
:10084800AB0CAA0CA90CA80CAC0B232C2B08A700EA
:100858002A08A6002908A5002808A4000130B20724
:100868000318B30A0030B3073308803AFF0080301A
:100878007F02031D412CFF303202031C442C452CFF
:10088800532CFF3083120313B2000030B300003042
:10089800A7000030A6000030A5000030A400831295
:1008A80003133308803AFF0080307F02031D5E2C5B
:1008B800013032020318612C622C6F2C831203134F
:1008C800B201B3010030A7000030A6000030A50037
:1008D8000030A400B101831203133208B800381C99
:1008E800762C772C792CA6177D2C7F30FF007F087B
:1008F800A6053808A8000310280CA7001F2B08001D
:10090800831203133D088039C7003D08C20042071F
:10091800CD00BC1F902C912C922C4D144D0803191E
:10092800962C972CA62C4D0A031D9B2C9C2CA42C92
:100938000030BD000030BC000030BB000030BA0001
:10094800BC17AE2C0030BD000030BC000030BB002E
:100958000030BA0041088039FF007F08C706410807
:10096800C2004207CC00C01FBA2CBB2CBC2C4C14B4
:100978004C080319C02CC12CD02C4C0A031DC52CC3
:10098800C62CCE2C0030C1000030C0000030BF00A3
:100998000030BE00C017D82C0030C1000030C000A5
:1009A8000030BF000030BE004C080319DC2CDD2CE1
:1009B800E22C4D08031DE12CE22CEB2C0030BD008D
:1009C8000030BC000030BB000030BA00C82F3A0825
:1009D800F00040080A168A150A240A128A117108BA
:1009E80083120313D3007008D2005208C200C30157
:1009F800C401C5014508CB004408CA004308C90022
:100A08004208C8005308C200C301C401C501450813
:100A1800D1004408D0004308CF004208CE003B086C
:100A2800F0003F080A168A150A240A128A1171086A
:100A380083120313D3007008D2005208C200C30106
:100A4800C401C5014208C807430803110318013E41
:100A580003192F2DC907440803110318013E031970
:100A6800362DCA07450803110318013E03193D2D09
:100A7800CB075308C200C301C401C5014208CE0711
:100A8800430803110318013E03194B2DCF074408EF
:100A980003110318013E0319522DD007450803110D
:100AA8000318013E0319592DD1073C08F0003E08F0
:100AB8000A168A150A240A128A1171088312031366
:100AC800D3007008D2005208C200C301C401C50196
:100AD8004208C807430803110318013E0319752D7E
:100AE800C907440803110318013E03197C2DCA07DE
:100AF800450803110318013E0319832DCB0753083A
:100B0800C200C301C401C5014208CE07430803114E
:100B18000318013E0319912DCF0744080311031848
:100B2800013E0319982DD007450803110318013E0B
:100B380003199F2DD1070830C2000310C80DC90D35
:100B4800CA0DCB0DC20BA12D3B08F0003E080A16BA
:100B58008A150A240A128A11710883120313D30012
:100B68007008D2005208C2005308C300C401C5016E
:100B78004208C807430803110318013E0319C52D8D
:100B8800C907440803110318013E0319CC2DCA07ED
:100B9800450803110318013E0319D32DCB073A0862
:100BA800F0003F080A168A150A240A128A117108E9
:100BB80083120313D3007008D2005208C2005308EE
:100BC800C300C401C5014208C8074308031103183C
:100BD800013E0319F02DC907440803110318013E0B
:100BE8000319F72DCA07450803110318013E031915
:100BF800FE2DCB070830C2000310C80DC90DCA0D61
:100C0800CB0DC20B002E3A08F0003E080A168A15D2
:100C18000A240A128A11710883120313D300700878
:100C2800D2005208C2005308C300C401C5014208DB
:100C3800C807430803110318013E0319242EC907E6
:100C4800440803110318013E03192B2ECA0745084F
:100C580003110318013E0319322ECB073B08F0009D
:100C680040080A168A150A240A128A117108831282
:100C78000313D3007008D2005208C2005308C300FF
:100C8800C401C5014208CE07430803110318013EF9
:100C980003194F2ECF07440803110318013E031907
:100CA800562ED007450803110318013E03195D2E7F
:100CB800D1073C08F0003F080A168A150A240A12D0
:100CC8008A11710883120313D3007008D2005208E6
:100CD800C2005308C300C401C5014208CE07430837
:100CE80003110318013E03197A2ECF074408031194
:100CF8000318013E0319812ED00745080311031874
:100D0800013E0319882ED1073C08F00040080A1656
:100D18008A150A240A128A11710883120313D30050
:100D28007008D2005208C2005308C300C401C501AC
:100D380008300310C20DC30DC40DC50DFF3E031DC1
:100D48009D2E4208CE07430803110318013E0319DC
:100D5800AE2ECF07440803110318013E0319B52E20
:100D6800D007450803110318013E0319BC2ED1070B
:100D78004808C2004908C3004A08C4004B08C50017
:100D880018300310C50CC40CC30CC20CFF3E031D65
:100D9800C52E4208CE07430803110318013E031964
:100DA800D62ECF07440803110318013E0319DD2E80
:100DB800D007450803110318013E0319E42ED10793
:100DC8000830C2000310C80DC90DCA0DCB0DC20BE7
:100DD800E62E4D084C07C200C301C30D4208823EEF
:100DE800D20043080318013EFF3ED300182F0130FC
:100DF800C2000310CE0DCF0DD00DD10DC20BFD2EAC
:100E0800CB1F072F082F092F4E140130C2000310E3
:100E1800C80DC90DCA0DCB0DC20B0B2FFF30D20761
:100E28000318D30AFF30D307D01F1B2F1C2FFB2E0C
:100E3800CC01CB1F202F212F3D2FFF304805C200AA
:100E4800FF304905C300FF304A05C4007F304B0519
:100E5800C50045084404430442040319342F352FC0
:100E6800382FCC01CC0A3D2F4E1C3B2F3C2F3D2F59
:100E7800352F4C080319412F422F732F0130CE070D
:100E8800003003180130CF07003003180130D007B5
:100E9800003003180130D107511C532F542F732FE2
:100EA8004E08C2004F08C3005008C4005108C500CE
:100EB8000130C600450DC50CC40CC30CC20CC60BD2
:100EC8005E2F4508D1004408D0004308CF004208EF
:100ED800CE000130D2070318D30A0030D3075308D5
:100EE800803AFF0080307F02031D7C2FFF305202C2
:100EF800031C7F2F802F8B2F7F3083120313D10089
:100F08008030D0000030CF000030CE00BC2F8312DC
:100F180003135308803AFF0080307F02031D962F89
:100F2800013052020318992F9A2FA62F00308312EE
:100F38000313D1000030D0000030CF000030CE00C5
:100F4800C701BC2F831203135208CD00FF30CE0512
:100F5800FF30CF057F30D0050030D1054D1CB52FAF
:100F6800B62FB72FD0174D08C2000310420CD1007E
:100F78004708FF007F08D1045108BD005008BC0095
:100F88004F08BB004E08BA000800831603130A1660
:100F98008A1596220A128A11C8000A168A159722FB
:100FA8000A128A11C9000A168A1598220A128A1189
:100FB800CA000A168A1599220A128A11CB000A1643
:100FC8008A159A220A128A11CC000A168A159B22BF
:100FD8000A128A11CD008313A0308400C8300A1683
:100FE8008A159C220A128A1183120313ED01EE015D
:080FF80083010A168A113D2E47
:10100200F5000B280130FF007F08F5070130FF00D3
:101012007F08F0077008840083130008F200750847
:1010220084000008F30072087302F4007408031DC0
:101032001B281C282328750884000008031D222869
:10104200232803287408F000F101F01BF1030800C3
:1010520083120313DE010616861206138613061C7C
:101062003328342848286D086E04031D39283A288D
:1010720042283130DE0031300A168A1542270A1220
:101082008A15831203130618472848284228861C0B
:101092004B284C2860286D086E04031D51285228E5
:1010A2005A283430DE0034300A168A1542270A12D2
:1010B2008A158312031386185F2860285A28061D92
:1010C2006328642878286D086E04031D69286A283D
:1010D20072283730DE0037300A168A1542270A1284
:1010E2008A15831203130619772878287228861D19
:1010F2007B287C28A4286D086E04031D8128822881
:101102009F288316031330033104031D89288A287C
:101112009F280A168A15BC240A128A150A168A15ED
:101122009D270A128A150A168A15C1230A128A15E0
:1011320083160313B001B101AA01AB018312861910
:10114200A328A4289F280612861606138613061CB7
:10115200AB28AC28C0286D086E04031DB128B22844
:10116200BA283230DE0032300A168A1542270A12B5
:101172008A15831203130618BF28C028BA28861CB2
:10118200C328C428D8286D086E04031DC928CA289C
:10119200D2283530DE0035300A168A1542270A1267
:1011A2008A15831203138618D728D828D228061D39
:1011B200DB28DC28F0286D086E04031DE128E228F4
:1011C200EA283830DE0038300A168A1542270A1219
:1011D2008A15831203130619EF28F028EA28861DC0
:1011E200F328F42808296D086E04031DF928FA284B
:1011F20002293030DE0030300A168A1542270A12E0
:101202008A1583120313861907290829022906124F
:10121200861206178613061C0F29102924296D0829
:101222006E04031D152916291E293330DE003330C2
:101232000A168A1542270A128A1583120313061800
:10124200232924291E29861C272928293C296D089F
:101252006E04031D2D292E2936293630DE00363044
:101262000A168A1542270A128A1583120313861850
:101272003B293C293629061D3F29402954296D085E
:101282006E04031D452946294E293930DE003930C6
:101292000A168A1542270A128A158312031306199F
:1012A200532954294E29861D57295829322A831633
:1012B200031330083104031D5F29602987292C0894
:1012C2002D04031D6529662987292E082F04031D75
:1012D2006B296C298729831203136D086E04031D81
:1012E2007329742987290030F000F1000A30F200D6
:1012F2000030F300BE300A168A153D230A128A1501
:101302000A168A15C1230A128A152C2A8316031378
:101312002E032F04031D8E298F29C1292C082D0489
:10132200031D94299529C1290030F000F1000A30EB
:10133200F2000030F300BE300A168A153D230A126D
:101342008A150A168A15AD220A128A15F401F40AC0
:1013520001300A168A15F5250A128A150130F9009C
:101362009930FA000A168A15AF250A128A15F40175
:10137200F40A02300A168A15F5250A128A152C2A51
:101382002E032F04031DC629C729F9292C032D0476
:10139200031DCC29CD29F9290030F000F1000A30D3
:1013A200F2000030F300B4300A168A153D230A1207
:1013B2008A150A168A15AD220A128A15F401F40A50
:1013C20001300A168A15F5250A128A15F330F9003A
:1013D2009830FA000A168A15AF250A128A15F40106
:1013E200F40A02300A168A15F5250A128A152C2AE1
:1013F20002302E062F04031DFF29002A2C2A00305A
:10140200F000F1000A30F2000030F300B4300A16A6
:101412008A153D230A128A150A168A15AD220A1266
:101422008A15F401F40A01300A168A15F5250A1202
:101432008A15F330F9009830FA000A168A15AF259A
:101442000A128A15F401F40A02300A168A15F525E1
:101452000A128A152C2A831203138619312A322A78
:101462002C2A0612861206138617061C392A3A2AD5
:101472006A2A6D086E04031D3F2A402A652A00303D
:10148200F000F1000A30F2000030F300BE300A161C
:101492008A153D230A128A150030F000F1000A3045
:1014A200F2000030F300B4300A168A153D230A1206
:1014B2008A150A168A15E8260A128A150130831639
:1014C2000313AE000030AF0083120618692A6A2A9D
:1014D200652A861C6D2A6E2AB52A6D036E04031DC9
:1014E200732A742AB02A0A168A15AD220A128A159C
:1014F2000230F40001300A168A15F5250A128A15FF
:101502000F30F9009930FA000A168A15AF250A122F
:101512008A150330F40002300A168A15F5250A12DC
:101522008A15C930F9009830FA000A168A15AF25D3
:101532000A128A15033083120313D3000830D20033
:101542007630D100D10BA32AD20BA32AD30BA32A24
:101552000000013083160313A8000030A900831293
:101562008618B42AB52AB02A061DB82AB92A7D2BB4
:101572006D086E04031DBE2ABF2A042B83160313B3
:1015820026082704031DC62AC72A042B0A168A1511
:10159200AD220A128A150230F40001300A168A15A9
:1015A200F5250A128A150F30F9009930FA000A1649
:1015B2008A15AF250A128A150330F40002300A1682
:1015C2008A15F5250A128A15D730F9009830FA00E3
:1015D2000A168A15AF250A128A15033083120313DD
:1015E200D3000830D2007630D100D10BF62AD20BCC
:1015F200F62AD30BF62A0000013083160313A60045
:101602000030A700782B83126D036E04031D0A2B92
:101612000B2B782B8316031328032904031D122B8B
:10162200132B782B0A168A15AD220A128A1502305C
:10163200F40001300A168A15F5250A128A150F30B0
:10164200F9009930FA000A168A15AF250A128A158E
:10165200013083160313B2000030B3000B30831243
:101662000313D3002630D2005D30D100D10B372BCB
:10167200D20B372BD30B372B0A168A15AD220A123F
:101682008A15F401F40A01300A168A15F5250A12A0
:101692008A155F30F9009830FA000A168A15AF25CC
:1016A2000A128A150330F40002300A168A15F5254B
:1016B2000A128A156F30F9009830FA000A168A1554
:1016C200AF250A128A158312031307173D308312BE
:1016D2000313D300E130D2003F30D100D10B6F2B86
:1016E200D20B6F2BD30B6F2B8312031307138312AF
:1016F20006197C2B7D2B782B861D802B812BF92BB9
:101702008316031326032704031D882B892BF42B2E
:101712000A168A15AD220A128A150230F400013027
:101722000A168A15F5250A128A150F30F900993022
:10173200FA000A168A15AF250A128A150230831298
:101742000313ED000030EE00023083160313B200E3
:101752000030B3000B3083120313D3002630D200C3
:101762005D30D100D10BB32BD20BB32BD30BB32BE8
:101772000A168A15AD220A128A15F401F40A0130FA
:101782000A168A15F5250A128A155F30F900983073
:10179200FA000A168A15AF250A128A150330F400D8
:1017A20002300A168A15F5250A128A156F30F900D9
:1017B2009830FA000A168A15AF250A128A15831282
:1017C200031307173D3083120313D300E130D20015
:1017D2003F30D100D10BEB2BD20BEB2BD30BEB2BEE
:1017E20083120313071383128619F82BF92BF42B98
:1017F200871FFC2BFD2BB92C6D036E04031D022CDD
:10180200032CB42C8316031328032904031D0A2C6A
:101812000B2CB42C32033304031D102C112CB42CCA
:101822000A168A15AD220A128A150430F400013014
:101832000A168A15F5250A128A155B30F9009930C5
:10184200FA000A168A15AF250A128A150530F40025
:1018520002300A168A15F5250A128A159D30F900FA
:101862009930FA000A168A15AF250A128A158312D0
:101872000313ED01EE0183160313A801A901B201BE
:10188200B3010130C8000030C900153083120313C0
:10189200D3004B30D200BD30D100D10B4E2CD20B35
:1018A2004E2CD30B4E2C552C0A168A15AD220A1239
:1018B2008A150A168A153B260A128A150330F40085
:1018C20001300A168A15F5250A128A157E30F900AA
:1018D2009830FA000A168A15AF250A128A15F40101
:1018E200F40A02300A168A15F5250A128A153E30C4
:1018F200F9009830FA000A168A15AF250A128A15DD
:101902001F3083120313D3007130D2001D30D10077
:10191200D10B892CD20B892CD30B892C902C0A1633
:101922008A15AD220A128A15F401F40A01300A1648
:101932008A15F5250A128A15F330F9009830FA0053
:101942000A168A15AF250A128A15F401F40A023022
:101952000A168A15F5250A128A1502308316031310
:10196200AE000030AF008312871BB82CB92CB42C08
:10197200071CBC2CBD2C2B2D02306D066E04031DE2
:10198200C32CC42C252D8316031326032704031D01
:10199200CB2CCC2C252D023032063304031DD22C45
:1019A200D32C252D0A168A15AD220A128A15F401A6
:1019B200F40A01300A168A15F5250A128A15BA3078
:1019C200F9009830FA000A168A15AF250A128A150C
:1019D200F401F40A02300A168A15F5250A128A154C
:1019E200AB30F9009830FA000A168A15AF250A12B0
:1019F2008A15333083120313D300BB30D200DF3099
:101A0200D100D10B022DD20B022DD30B022D831646
:101A12000313A601A70183120313ED01EE0183163E
:101A22000313B201B30130083104031D192D1A2D1D
:101A3200202D0A168A15C1230A128A15252D0A1687
:101A42008A155E240A128A158312031307182A2D97
:101A52002B2D252D8316031330083104031D322D3F
:101A6200332D8C2D2E082F04031D382D392D8C2D4E
:101A7200831203135E0803193F2D402DFF2F5E08CA
:101A82000A168A157B230A128A150330831203135E
:101A9200D3000830D2007630D100D10B4E2DD20BBC
:101AA2004E2DD30B4E2D0000831603134803490419
:101AB20003195C2D5D2D6B2D023048064904031974
:101AC200632D642D6B2D033048064904031D6A2DD6
:101AD2006B2D712D0A168A1160220A128A15FF2FA8
:101AE200043048064904031D772D782D7E2D0A16F1
:101AF2008A11EB220A128A15FF2F05304806490483
:101B0200031D842D852D8B2D0A168A1101210A129F
:101B12008A15FF2FFF2F2E032F04031D912D922DC7
:101B2200472F831203135E080319982D992DFF2F57
:101B32005E080A168A157B230A128A15033083125D
:101B42000313D3000830D2007630D100D10BA72D79
:101B5200D20BA72DD30BA72D00000030F100F2000D
:101B62005430F3000A168A1521230A128A15BE3050
:101B72000A168A15D9220A128A15700883120313CB
:101B8200D1007108D20054300A168A15D9220A12DD
:101B92008A157108831203135206031DD22D700891
:101BA2005106031DD52DD62D832E831603132C0823
:101BB2002D04031DDD2DDE2D832E5430F000BE30AA
:101BC2000A128A1501200A128A1570087104031D6F
:101BD200EB2DEC2D592E0030F000F1000A30F2000E
:101BE2000030F300BE300A168A153D230A128A1508
:101BF2000A168A15AD220A128A150A168A153B267A
:101C02000A128A150330F40001300A168A15F525E6
:101C12000A128A157E30F9009830FA000A168A15DF
:101C2200AF250A128A15F401F40A02300A168A153F
:101C3200F5250A128A153E30F9009830FA000A1684
:101C42008A15AF250A128A151F3083120313D30097
:101C52007130D2001D30D100D10B2D2ED20B2D2E82
:101C6200D30B2D2E342E0A168A15AD220A128A158E
:101C7200F401F40A01300A168A15F5250A128A15AA
:101C8200F330F9009830FA000A168A15AF250A12C5
:101C92008A15F401F40A02300A168A15F5250A1289
:101CA2008A15013083160313AC000030AD00FF2FFC
:101CB2000A168A1197200A128A150030F000F100E4
:101CC2000A30F2000030F300BE300A168A153D23B6
:101CD2000A128A158316031330083104031D722E6B
:101CE200732E792E0A168A15C1230A128A157E2EA0
:101CF2000A168A155E240A128A1583160313AE0188
:101D0200AF01FF2F831603132C032D04031D8A2E0C
:101D12008B2E8B2D831203135E080319912E922EA4
:101D2200FF2F5E080A168A159E230A128A15B430FE
:101D32000A168A15D9220A128A150630700671040B
:101D4200031DA42EA52EFF2F0030F200F300B430A5
:101D5200F4000A168A158B240A128A150030F00044
:101D6200F1000A30F2000030F300B4300A168A158E
:101D72003D230A128A150030F000F1000A30F20009
:101D82000030F300BE300A168A153D230A128A1566
:101D920083160313AC01AD01AE01AF010A168A1519
:101DA200AD220A128A150A168A153B260A128A15CC
:101DB2000330F40001300A168A15F5250A128A1535
:101DC200E530F9009830FA000A168A15AF250A1292
:101DD2008A15663083120313D3007630D200C030E6
:101DE200D100D10BF22ED20BF22ED30BF22E000029
:101DF2000A168A15AD220A128A150330F400013040
:101E02000A168A15F5250A128A152B30F90099301F
:101E1200FA000A168A15AF250A128A150430F40050
:101E220002300A168A15F5250A128A158B30F90036
:101E32009930FA000A168A15AF250A128A153D3022
:101E420083120313D300E130D2003F30D100D10B13
:101E5200282FD20B282FD30B282F0A168A15BC2421
:101E62000A128A158316031330083104031D3A2F10
:101E72003B2F412F0A168A15C1230A128A15FF2FFA
:101E82000A168A155E240A128A15FF2F02302E06C0
:101E92002F04031D4D2F4E2FFF2F831203135E08B5
:101EA2000319542F552FFF2F5E080A168A159E23F9
:101EB2000A128A15B4300A168A15D9220A128A150C
:101EC200063070067104031D672F682FFF2F003044
:101ED200F200F300B430F4000A168A158B240A12B9
:101EE2008A150030F000F1000A30F2000030F300F1
:101EF200B4300A168A153D230A128A150030F00002
:101F0200F1000A30F2000030F300BE300A168A15E2
:101F12003D230A128A1583160313AC01AD01AE01EB
:101F2200AF010A168A15AD220A128A150A168A15F7
:101F32003B260A128A150330F40001300A168A156C
:101F4200F5250A128A15E530F9009830FA000A16CA
:101F52008A15AF250A128A15663083120313D3003D
:101F62007630D200C030D100D10BB52FD20BB52FB5
:101F7200D30BB52F00000A168A15AD220A128A1554
:101F82000330F40001300A168A15F5250A128A1563
:101F92002B30F9009930FA000A168A15AF250A1279
:101FA2008A150430F40002300A168A15F5250A1241
:101FB2008A158B30F9009930FA000A168A15AF2576
:101FC2000A128A153D3083120313D300E130D20086
:101FD2003F30D100D10BEB2FD20BEB2FD30BEB2FDA
:101FE2000A168A15BC240A128A15831603133008AE
:0E1FF2003104031DFD2FFE2F412F3B2F080051
:102004008312031388180728082824286830F50049
:10201400E430F400F40B0C28F50B0C2800001E2807
:102024000030F000F1000130F2000030F3000A1635
:102034008A15BA220A168A1183120313881C2328CC
:10204400242812280030F000F1000030F200F300E0
:102054000A168A15BA220A168A110800F501F11F18
:10206400342835283C28F009F109F00A0319F10A4B
:10207400F501F50AF31F3F2840284928F209F3091E
:10208400F20A0319F30A0130FF007F08F506F6018E
:10209400F701700871040319502851288828F401A5
:1020A400F40A5F2801300310F00DF10DFF3E031D0B
:1020B40055280130FF007F08F407F11F62286328C8
:1020C400542801300310F60DF70DFF3E031D64285C
:1020D40071087302031D702870087202031C7328B0
:1020E40074287B287008F2027108031CF303F302BE
:1020F400761401300310F10CF00CFF3E031D7C2814
:102104000130F402031D8728882863287508031901
:102114008C288D289228F609F709F60A0319F70A7C
:102124007708F1007608F00008000A168A15AD2237
:102134000A168A1183120313A501A601F401F40AF5
:1021440001300A168A15F5250A168A112D30F90070
:102154009830FA000A168A15AF250A168A11063035
:10216400F40002300A168A15F5250A168A11793008
:10217400F9009930FA000A168A15AF250A168A1151
:102184008312031309140F3083120313A400353090
:10219400A3005030A200A20BCD28A30BCD28A40B82
:1021A400CD2800000A168A15AD220A168A11831258
:1021B400031309100F3083120313A4003530A30056
:1021C4005030A200A20BE428A30BE428A40BE428BB
:1021D4000000013083120313A5070318A60A003078
:1021E400A6072608803AFF0080307F02031DFC28E2
:1021F40003302502031CFF280029A0280800003012
:10220400F100F2002930F3000A168A1521230A1678
:102214008A11BE300A168A15D9220A168A11700844
:1022240083120313A7007108A80029300A168A151F
:10223400D9220A168A117108831203132806031D72
:10224400252970082706031D282929296F292930E3
:10225400F000BE300A128A1501200A168A1170088D
:102264007104031D3629372950290A168A11E821D9
:102274000A168A11013083160313C8000030C900FE
:102284000030F000F1000A30F2000030F300BE30FC
:102294000A168A153D230A168A116F290A168A110D
:1022A40097200A168A11013083160313C8070318EE
:1022B400C90A0030C9070030F000F1000A30F2000A
:1022C4000030F300BE300A168A153D230A168A111F
:1022D4000A168A11B4240A168A11080003108312FC
:1022E4000313560D570DDD005D08031D7A297B2964
:1022F40084290030D7000030D6000030D5000030EB
:10230400D400E7295408D8005508D9005608DA0043
:102314005708DB001F300310DB0CDA0CD90CD80C87
:10232400FF3E031D8D295808DC00D617FF30D40565
:10233400FF30D505FF30D6050030D7059630DD02D5
:10234400DD1FA529A629C0295D08803A973E0318F8
:10235400AC29AD29AE297B2901300310D70CD60C4A
:10236400D50CD40CFF3E031DAF290130FF007F08BC
:10237400DD07031DBE29BF29AE29D72920305D0200
:10238400031CC529C629D2297B290130D800031092
:10239400D40DD50DD60DD70DD80BC9290130DD02CA
:1023A4005D08031DD629D729C7295C080319DB2931
:1023B400DC29E729D409D509D609D709D40A031990
:1023C400D50A0319D60A0319D70A08000A168A156A
:1023D400AD220A168A110630F40001300A168A1555
:1023E400F5250A168A11A630F9009930FA000A1662
:1023F4008A15AF250A168A110430F40002300A1631
:102404008A15F5250A168A114530F9009930FA0023
:102414000A168A15AF250A168A110A168A15BC24CB
:102424000A168A110A168A1102200A168A11013024
:1024340083160313B0000030B100AA01AB010A16E1
:102444008A15AD220A168A110530F40001300A16E5
:102454008A15F5250A168A119430F9009930FA0084
:102464000A168A15AF250A168A111530831203132A
:10247400A4004B30A300BD30A200A20B3F2AA30B43
:102484003F2AA40B3F2A462A0A168A155E240A16F6
:102494008A11831203130915333083120313A40022
:1024A400BB30A300DF30A200A20B562AA30B562A8E
:1024B400A40B562A83120313091108000030F100FB
:1024C400F2004730F3000A168A1521230A168A11EE
:1024D400BE300A168A15D9220A168A117008831288
:1024E4000313C5007108C60047300A168A15D9229D
:1024F4000A168A117108831203134606031D842ADF
:1025040070084506031D872A882AEA2A4730F00006
:10251400BE300A128A1501200A168A117008710445
:10252400031D952A962AAF2A0030F000F1000A30E4
:10253400F2000030F300BE300A168A153D230A1655
:102544008A110A168A11E8210A168A1101308316A3
:102554000313C8000030C900EA2A0A168A1197201A
:102564000A168A11013083160313C8070318C90A0F
:102574000030C9070030F000F1000A30F2000030EA
:10258400F300BE300A168A153D230A168A1100305C
:102594008316031349020430031948020318D32A8B
:1025A400D42ADA2A0A168A15C1230A168A11EA2AB3
:1025B4001E3083120313B2000030B3000A168A11CE
:1025C40058250A168A110A168A15C1230A168A1171
:1025D40008000030F100F2004730F3000A168A15B3
:1025E40021230A168A11BE300A168A15D9220A1620
:1025F4008A11700883120313C5007108C60047309E
:102604000A168A15D9220A168A117108831203132D
:102614004606031D0F2B70084506031D122B132BB2
:10262400752B4730F000BE300A128A1501200A16B5
:102634008A1170087104031D202B212B3A2B0A16D2
:102644008A11E8210A168A11013083160313C8007F
:102654000030C9000030F000F1000A30F200003010
:10266400F300BE300A168A153D230A168A11752B0B
:102674000A168A1197200A168A1101308316031349
:10268400C8070318C90A0030C9070030F000F10078
:102694000A30F2000030F300BE300A168A153D23DA
:1026A4000A168A11003083160313490204300319F1
:1026B400480203185E2B5F2B652B0A168A15C1236B
:1026C4000A168A11752B3C3083120313B2000030B2
:1026D400B3000A168A1158250A168A110A168A1591
:1026E400C1230A168A11080083120313A101F31FE0
:1026F4007C2B7D2B8A2BF009F109F209F309F00AEE
:102704000319F10A0319F20A0319F30AA101A10A30
:10271400F71F8D2B8E2B9D2BF409F509F609F7096C
:10272400F40A0319F50A0319F60A0319F70A013022
:10273400FF007F08A1060030A5000030A40000308F
:10274400A3000030A200730872047104700403191A
:10275400AC2BAD2BFA2BA001A00ABD2B0130F80045
:102764000310F00DF10DF20DF30DF80BB22B013047
:10277400FF007F08A007F31FC02BC12BB02B013033
:10278400F8000310A20DA30DA40DA50DF80BC32B87
:1027940073087702031DD82B72087602031DD82B09
:1027A40071087502031DD82B70087402031CDB2BFF
:1027B400DC2BEB2B7008F4027108031C710FF5027B
:1027C4007208031C720FF6027308031C730FF702DE
:1027D400221401300310F30CF20CF10CF00CFF3E48
:1027E400031DEC2B0130A002031DF92BFA2BC12B86
:1027F40021080319FE2BFF2B0A2CA209A309A40903
:10280400A509A20A0319A30A0319A40A0319A50A0C
:102814002508F3002408F2002308F1002208F00040
:102824000800831203135E08F0005F08F100F20150
:10283400F30100300A128A112F200A168A11730834
:1028440083120313A7007208A6007108A50070087C
:10285400A4004430A3007F30A200C030A1000030A7
:10286400A0000A128A11B5220A168A1183120313D0
:102874002308C1002208C0002108BF002008BE00B0
:1028840083160313120883120313E000E101E2012B
:10289400E3016308F3006208F2006108F1006008D4
:1028A400F00000300A128A112F200A168A117308C8
:1028B40083120313BD007208BC007108BB007008CA
:1028C400BA000A128A1184240A168A118312031385
:1028D4003D08E7003C08E6003B08E5003A08E40050
:1028E4006708C1006608C0006508BF006408BE0030
:1028F4004030BD008030BC000030BB000030BA0066
:102904000A128A1184240A168A11831203133D08B9
:10291400D7003C08D6003B08D5003A08D4000A1674
:102924008A1170210A168A11831203135508DF00D5
:102934005408DE0097125E18A02CA42C83120313F3
:102944001716A72C8312031317125F08E1005E0801
:10295400E0000310E10CE00C0310E10CE00C600853
:10296400950008000A168A15AD220A168A110A165D
:102974008A153B260A168A1183120313A501A601A0
:10298400F401F40A01300A168A15F5250A168A118B
:102994004F30F9009830FA000A168A15AF250A1646
:1029A4008A11831203130914153083120313A4002C
:1029B4004B30A300BD30A200A20BDE2CA30BDE2CF7
:1029C400A40BDE2CE52C0A168A15AD220A168A11F0
:1029D400831203130910153083120313A4004B3020
:1029E400A300BD30A200A20BF52CA30BF52CA40B65
:1029F400F52CFC2C013083120313A5070318A60A37
:102A04000030A6072608803AFF0080307F02031DAD
:102A14000D2D02302502031C102D112DC22C033064
:102A2400F40001300A168A15F5250A168A11653054
:102A3400F9009930FA000A168A15AF250A168A1188
:102A44000230F40002300A168A15F5250A168A1196
:102A54009C30F9009830FA000A168A15AF250A1638
:102A64008A11033083120313A4000830A3007630C4
:102A7400A200A20B3B2DA30B3B2DA40B3B2D00006E
:102A8400013083120313ED000030EE000330831293
:102A94000313A4000830A3007630A200A20B502D2B
:102AA400A30B502DA40B502D000008000A168A1504
:102AB400AD220A168A11BC3083120313A000993088
:102AC400A1003308A3003208A20037300A128A1189
:102AD400E7200A168A110230F40001300A168A151A
:102AE400F5250A168A11AE30F9009930FA000A1653
:102AF4008A15AF250A168A110730F40001300A1628
:102B04008A15F5250A168A11B430F9009930FA00AD
:102B14000A168A15AF250A168A110B30F400013003
:102B24000A168A15F5250A168A113730F90000307D
:102B3400FA000A168A15AF250A168A110D30F40018
:102B440001300A168A15F5250A168A11B930F900DA
:102B54009930FA000A168A15AF250A168A11073029
:102B6400F40002300A168A15F5250A168A11831212
:102B74000313C301C401322E3C30F0000030F100D5
:102B84004408F3004308F2000A168A1130200A169A
:102B94008A11710883160313A3007008A2003C3045
:102BA400F0000030F100831203134408F3004308DB
:102BB400F2000A168A158F260A168A1171088316DE
:102BC4000313A1007008A0006F3083120313A00048
:102BD4009930A10083160313230883120313A3005F
:102BE40083160313220883120313A200831603130C
:102BF400210883120313A5008316031320088312EC
:102C04000313A4003D300A128A11E7200A168A1120
:102C14003D30F9000030FA000A168A15AF250A166D
:102C24008A11153083120313B6004B30B500BD3042
:102C3400B400B40B1B2EB50B1B2EB60B1B2E222E71
:102C44000730F40002300A168A15F5250A168A118F
:102C5400013083120313C3070318C40A0030C407E6
:102C640033084402031D382E32084302031C3B2E52
:102C74003C2EBE2D080083160313B201B301A60136
:102C8400A70183120313ED01EE01831603138710CA
:102C940005140A168A15A4220A168A110A168A1518
:102CA4002A250A168A118316031387158814081413
:102CB4008813081388120812881108118613061342
:102CC4008612061286150615861406140910891034
:102CD4008712871707130714871009113008310466
:102CE400031D752E762E7C2E0A168A15C1230A160C
:102CF4008A11812E0A168A155E240A168A1100305A
:102D0400F000F1000030F200F3000A168A15BA222E
:102D14000A168A11023083120313EA000430E90010
:102D2400B930E800E80B942EE90B942EEA0B942EAC
:102D34009B2E00300A128A1104200A168A11710887
:102D440083120313EC007008EB006C08DF006B08BF
:102D5400DE000A168A1113240A168A11023083121D
:102D64000313EA000430E900B930E800E80BB82E98
:102D7400E90BB82EEA0BB82EBF2E831203130818E2
:102D8400C42EC52EE32E683083120313E900E3300A
:102D9400E800E80BCB2EE90BCB2ED02EDD2E013034
:102DA400F0000030F1000030F200F3000A168A153A
:102DB400BA220A168A1183120313081CE22EE32E88
:102DC400D12E0030F000F1000030F200F3000A16BA
:102DD4008A15BA220A168A11831203138719F32E4D
:102DE400F42E1F2F023083120313EA000430E9008B
:102DF400B930E800E80BFC2EE90BFC2EEA0BFC2EA4
:102E0400032F182F0A128A1529200A168A11033053
:102E140083120313EA000830E9007630E800E80B77
:102E2400112FE90B112FEA0B112F0000831203134A
:102E3400871D1D2F1E2F042FD82F831603132A0836
:102E44002B04031D262F272FB52F30083104031D13
:102E54002C2F2D2FB52F0A168A15AD220A168A118A
:102E64000530F40001300A168A15F5250A168A1170
:102E74009430F9009930FA000A168A15AF250A161B
:102E84008A11053083120313EA000F30E900F03091
:102E9400E800E80B4B2FE90B4B2FEA0B4B2F0000FC
:102EA4000A168A15BC240A168A110A168A110220E7
:102EB4000A168A11013083160313AA000030AB00EE
:102EC4000130B0000030B1000130C8000030C9004A
:102ED40083120313ED01EE0183160313A801A90164
:102EE400B201B301A601A70183120313871433307F
:102EF40083120313EA00BB30E900DF30E800E80B7B
:102F0400812FE90B812FEA0B812F83120313871082
:102F14000A168A15AD220A168A110530F40001300A
:102F24000A168A15F5250A168A119430F900993083
:102F3400FA000A168A15AF250A168A11113083126F
:102F44000313EA003C30E900CA30E800E80BA82F7C
:102F5400E90BA82FEA0BA82F00000A168A155E2495
:102F64000A168A11D82F30033104031DBA2FBB2F40
:102F7400D82F0A168A15BC240A168A110A168A152D
:102F84009D270A168A1183160313AA01AB010A1698
:102F94008A15C1230A168A1183160313B001B101DD
:102FA4000130C8000030C900B201B30100300A1278
:102FB4008A1104200A168A11710883120313EC0083
:102FC4007008EB006C08DF006B08DE000A168A113B
:102FD40013240A168A11023083120313EA00043000
:102FE400E900B930E800E80BF52FE90BF52FEA0BFF
:102FF400F52FFC2FEE2E0A128A110028FF1B0A2837
:1030040083137F1883170008840A0319FF0A080032
:103014007F087F398A000408840A0319FF0A8200A2
:10302400013400340A34003464340034E8340334A2
:1030340010342734503461347334733477346F3438
:1030440072346434203450346C34653461347334F1
:1030540065343A34003449346E34763461346C3433
:1030640069346434203450346134733473347734C1
:103074006F34723464340034543468346534203426
:103084006E3465347734203450346134733473349B
:1030940077346F3472346434003453347934733491
:1030A400743465346D3420344C346F3463346B348D
:1030B4006534643421342134003450346C34653440
:1030C400613473346534203443346F346D34703474
:1030D4006C34653474346534003454346834653481
:1030E4002034503472346F3463346534733473343D
:1030F400213421342134003450346C346534613447
:1031040073346534203445346E3474346534723425
:1031140021342134003443347534723472346534C8
:103124006E34743420345034613473347334213441
:103134002134003454346F342034523465347334BD
:103144006534743420344B34653479342134213477
:1031540000345334753463346334653473347334F2
:10316400663475346C346C3479342134213400344D
:1031740041346E34733477346534723420344334D8
:10318400683461346E34673465346434003426340E
:103194002034503472346534733473342034283416
:1031A4004334293421342134003426342034503437
:1031B40072346534733473342034283444342934F9
:1031C40021342134003450346C3465346134733424
:1031D40065342034573461346934743421342134EF
:1031E40000344E34653477342034503461347334CD
:1031F400733477346F34723464343A34003443347F
:1032040075347234723465346E347434203450340A
:103214006134733473343A34003443346F346E3469
:103224006E346534633474342034503468346F3409
:103234006E34653400344C346F3463346B3420346E
:10324400743468346534203444346F346F347234E5
:1032540000344E346534773420345034613473345C
:10326400733477346F3472346434003450346C34CF
:103274006534613473346534203445346E347434C5
:1032840065347234003450346134733473347734B5
:103294006F34723464342134213421340034503492
:1032A4006C3465346134733465342134213421340D
:1032B4000034533479347334743465346D342134C4
:1032C400213421340034503472346534733473340B
:1032D4002034283442342934003425343034323410
:1032E40064343A342534303432346434003453345E
:1032F4006F347234723479342134213421340034FB
:103304004C344F3443344B34453444342134213425
:1033140000344934733420345334653474342134E0
:1033240021340034573465346C3463346F346D3471
:1033340065342134003455346E346C346F34633462
:103344006B3465346434003443346F34723472340F
:1033540065346334743400345734613469347434F8
:103364002034003466346F347234203400347334BF
:0A33740021340034253464340034A1
:10352C0001340034883413340034003464008001D6
:10353C00840A04060319003404069D2A41308312C0
:10354C0003139F00C030831603139F000800003044
:10355C000A168A1507230A168A1501300A168A15C7
:10356C0007230A168A150800700C83120313031C18
:10357C00891003188914720C031C87120318871600
:10358C000800F100F0013A3071020318CE2ACF2A5C
:10359C00D72A30307102031CD42AD52AD72AF0013D
:1035AC00F00A700C0800F3007308F200E12A0130F5
:1035BC00FF007F08F2077208840083130008031DC4
:1035CC00E82AE92ADD2A73087202F000F101F01BE7
:1035DC00F1030800F0006400831603178C18F72A17
:1035EC00F82AF12A7008831203178D003F30FF0070
:1035FC007F08831603178C050C14831203170C0811
:10360C000800F30083120313081173080A168A15B5
:10361C0059230A168A158312031388151530F200E4
:10362C00C630F100F10B182BF20B182B0000831293
:10363C0003138811080071080A168A15F0220A165D
:10364C008A15F40073088400740883138000013019
:10365C00FF007F08F3070130F1070318F20A00306E
:10366C00F2077408031D3B2B3C2B212B0800F500A3
:10367C007508F4004A2B74088400700883138000CA
:10368C000130FF007F08F4070130F2020030031C08
:10369C00F303F302720A031D572B730A031D572BF6
:1036AC00582B412B0800F000701C5D2B5E2B622BFD
:1036BC00831203130816652B831203130812F01CD4
:1036CC00682B692B6B2B88166C2B8812701D6F2B3B
:1036DC00702B722B0817732B0813F01D762B772B7E
:1036EC00792B88177A2B88130800F400BE300A1641
:1036FC008A15D9220A168A157108F6007008F50089
:10370C007608803AFF0080307F02031D8F2B093032
:10371C0075020318922B932B9D2B7508BE3E8400CB
:10372C007408831380007508BF3E84008001080074
:10373C00F400B4300A168A15D9220A168A157108B3
:10374C00F6007008F5007608803AFF0080307F02A2
:10375C00031DB22B093075020318B52BB62BC02BE9
:10376C007508B43E84007408831380007508B53E58
:10377C008400800108000A168A15AD220A168A15E3
:10378C000A168A153B260A168A15F401F40A01302A
:10379C000A168A15F5250A168A151C30F900983078
:1037AC00FA000A168A15AF250A168A15F401F40ACE
:1037BC0002300A168A15F5250A168A150800F40136
:1037CC00F501701CEA2BEB2BF12B7208F407031894
:1037DC00F50A7308F50701300310F20DF30DFF3EE7
:1037EC00031DF22B01300310F10CF00CFF3E031DF6
:1037FC00F92B70087104031D042C052CE72B75089C
:10380C00F1007408F0000800F800F401F5017008EC
:10381C00F200F3017208F6007308F700781C172CFD
:10382C00182C1E2C7608F4070318F50A7708F507F0
:10383C0001300310F60DF70DFF3E031D1F2C031076
:10384C00F80C7808031D2B2C2C2C142C7508F1006B
:10385C007408F0000800F100831603178C18372C3D
:10386C00382C322C7108831203178D0070088C00D1
:10387C003F30FF007F08831603178C058312031358
:10388C0003108B1F4A2C4B2C4C2C03148B138316BC
:10389C0003170C1555308D00AA308D008C140C11AB
:1038AC0083120313031C5B2C5C2C5D2C8B17080000
:1038BC000A168A15AD220A168A150A168A153B268F
:1038CC000A168A150530F40001300A168A15F525FA
:1038DC000A168A155130F9009930FA000A168A1521
:1038EC00AF250A168A150230F40002300A168A1522
:1038FC00F5250A168A151D30F9009930FA000A16BA
:10390C008A15AF250A168A150800AC2C7408840099
:10391C000008F00072080A168A1531240A168A1556
:10392C000130F2070318F30A0030F3070130FF00EF
:10393C007F08F4070330F7000830F6007730F50005
:10394C00F50BA62CF60BA62CF70BA62C74088400F2
:10395C0083130008031DB32CB42C8C2CF0017208BB
:10396C000A168A1531240A168A150800F301F40187
:10397C008312031309140330F2000830F10077307E
:10398C00F000F00BC72CF10BC72CF20BC72C8312D9
:10399C00031309100330F2000830F1007730F00007
:1039AC00F00BD62CF10BD62CF20BD62C0130F307E6
:1039BC000318F40A0030F4077408803AFF008030D2
:1039CC007F02031DEB2C04307302031CEE2CEF2C36
:1039DC00BE2C0800770878040319F52CF62C252D3D
:1039EC00FB01FB0A042D01300310F70DF80DFF3E0F
:1039FC00031DFA2C0130FF007F08FB07F81F072D71
:103A0C00082DF92C78087A02031D0E2D77087902FF
:103A1C00031C112D122D182D7708F9027808031CA0
:103A2C00FA03FA0201300310F80CF70CFF3E031DE9
:103A3C00192D0130FB02031D242D252D082D7A088C
:103A4C00F8007908F7000800831603134A08F900F8
:103A5C004B08FA004C08FB004D08FC000230031028
:103A6C00F90DFA0DFB0DFC0DFF3E031D352D02303B
:103A7C000310F90DFA0DFB0DFC0DFF3E031D3E2D41
:103A8C007C08F3007B08F2007A08F1007908F0005A
:103A9C000030F700F430F6002430F5000030F4006C
:103AAC000A168A1176230A168A157008FF3E8316A9
:103ABC000313920083120313971517151214921007
:103ACC0012158316031307110800F401F501700891
:103ADC0071040319722D732DAA2DF601F60A812D8E
:103AEC0001300310F00DF10DFF3E031D772D013059
:103AFC00FF007F08F607F11F842D852D762D0130F0
:103B0C000310F40DF50DFF3E031D862D7108730295
:103B1C00031D922D70087202031C952D962D9D2D60
:103B2C007008F2027108031CF303F30274140130E1
:103B3C000310F10CF00CFF3E031D9E2D0130F6021C
:103B4C00031DA92DAA2D852D7508F1007408F00010
:103B5C00080083120313A001A101D82D20087907B6
:103B6C00FC007A08FB000318FB0AA01FBE2DFB0308
:103B7C007B08FD007D0883120313FF007C08840082
:103B8C000A168A1500200A168A150A168A15422763
:103B9C000A168A15013083120313A0070318A10A11
:103BAC000030A10720087907FC007A08FB000318F5
:103BBC00FB0AA01FE22DFB037B08FD007D0883128E
:103BCC000313FF007C0884000A168A1500200A16CD
:103BDC008A15003A031DF32DF42DB42D0800F600C0
:103BEC007603031DFA2DFB2D182E74087F3EF90069
:103BFC007908F50004300310F50CFF3E031D012E6F
:103C0C007508F70079080F39F80077080A168A1535
:103C1C0007230A168A1578080A168A1507230A1626
:103C2C008A153A2E02307606031D1D2E1E2E3A2EB4
:103C3C007408BF3EF9007908F50004300310F50C48
:103C4C00FF3E031D242E7508F70079080F39F80084
:103C5C0077080A168A1507230A168A1578080A1691
:103C6C008A1507230A168A15080000300A168A15C9
:103C7C0059230A168A1503300A168A1507230A16C1
:103C8C008A151A30F500F830F400F40B4B2EF50BB6
:103C9C004B2E000003300A168A1507230A168A15C4
:103CAC003A30F5002330F400F40B5A2EF50B5A2E53
:103CBC0003300A168A1507230A168A1502300A16CB
:103CCC008A1507230A168A1502300A168A15072345
:103CDC000A168A1508300A168A1507230A168A1539
:103CEC0000300A168A1507230A168A150C300A1694
:103CFC008A1507230A168A1500300A168A15072317
:103D0C000A168A1506300A168A1507230A168A150A
:103D1C000800F501F31F932E942E9B2EF209F30944
:103D2C00F20A0319F30AF501F50AF11F9E2E9F2ED4
:103D3C00A42EF009F109F00A0319F10A70087104B4
:103D4C000319A92EAA2ED92EF401F40AB82E01308B
:103D5C000310F00DF10DFF3E031DAE2E0130FF00E0
:103D6C007F08F407F11FBB2EBC2EAD2E7108730219
:103D7C00031DC22E70087202031CC52EC62ECC2E3B
:103D8C007008F2027108031CF303F30201300310F4
:103D9C00F10CF00CFF3E031DCD2E0130F402031D7F
:103DAC00D82ED92EBC2E75080319DD2EDE2EE32E4F
:103DBC00F209F309F20A0319F30A7308F100720805
:103DCC00F00008000A168A15AD220A168A150A1682
:103DDC008A153B260A168A150330F40001300A16A0
:103DEC008A15F5250A168A153830F9009930FA002B
:103DFC000A168A15AF250A168A150230F40002300D
:103E0C000A168A15F5250A168A158D30F900983090
:103E1C00FA000A168A15AF250A168A151F30831266
:103E2C000313A4007130A3001D30A200A20B1C2FA1
:103E3C00A30B1C2FA40B1C2F232F0A168A15AD22A3
:103E4C000A168A15F401F40A01300A168A15F525AA
:103E5C000A168A150130F9009930FA000A168A15EB
:103E6C00AF250A168A15F401F40A02300A168A15CF
:103E7C00F5250A168A150800F40074080F39F200AB
:103E8C007408F039F3008312031308157308F1005A
:103E9C0004300310F10CFF3E031D4F2F71080A165E
:103EAC008A1559230A168A15831203138815333081
:103EBC00F5008230F6000000FF30F5070318F60A13
:103ECC00FF30F6077608803AFF0080307F02031D32
:103EDC00712F01307502031C742F752F612F831203
:103EEC000313881172080A168A1559230A168A15A3
:103EFC008312031388153330F7008230F80000006A
:103F0C00FF30F7070318F80AFF30F8077808803AF3
:103F1C00FF0080307F02031D952F01307702031CB8
:103F2C00982F992F852F8312031388110800831261
:103F3C0003130818A22FA32FC12F68308312031369
:103F4C00A300E330A200A20BA92FA30BA92FAE2F25
:103F5C00BB2F0130F0000030F1000030F200F30014
:103F6C000A168A15BA220A168A1583120313081C1C
:103F7C00C02FC12FAF2F0030F000F1000030F20045
:103F8C00F3000A168A15BA220A168A15063083120D
:103F9C000313A4001330A300AD30A200A20BD42F46
:103FAC00A30BD42FA40BD42F0A168A15AD220A16F4
:103FBC008A150530F40001300A168A15F5250A1603
:103FCC008A158230F9009930FA000A168A15AF2545
:103FDC000A168A15153083120313A4004B30A30064
:103FEC00BD30A200A20BF82FA30BF82FA40BF82FB7
:043FFC00FF2F08008B
:02400E00723FFF
:104200003100320033003400350036000000000079
:00000001FF
